:0400000026EF00F0F7
:100008003B82FACF25F0FBCF26F0F2AC0EEF00F0E2
:1000180010EF00F020EF00F0F2AA15EF00F017EF54
:1000280000F020EF00F0F2A41CEF00F01EEF00F04B
:1000380020EF00F054EC05F026C0FBFF25C0FAFFC6
:080048003B921100D7EF05F017
:10060000006E0B000000000000140C000000000E43
:10061000326EE4EC05F0520E276E0C0E286E0AECDA
:1006200006F0F28EF28C000E326E0400010E35ECF4
:1006300005F027C01BF028C01CF01BC027F01CC011
:1006400028F056EC04F027C019F028C01AF0530E19
:10065000E82EFED70000322A070E326432EF03F094
:1006600034EF03F015EF03F0F2EF03F0000E246E09
:100670000400A3EC05F0010E35EC05F027C01BF0DB
:1006800028C01CF01BC027F01CC028F056EC04F05A
:1006900027C019F028C01AF0D8EC04F0E806D8A456
:1006A00054EF03F056EF03F065EF03F0C7EC05F0ED
:1006B000030E276E010E296EF40E286E000EFFEC5D
:1006C00003F0020E236E7CEF03F007EC05F0E80662
:1006D000D8A46DEF03F06FEF03F07CEF03F0C7ECED
:1006E00005F0030E276E010E296EF40E286E010E22
:1006F000FFEC03F0010E236E1750155C18501658CE
:10070000D8B085EF03F087EF03F095EF03F017C043
:1007100027F018C028F0000E2A6E3E0E296E9EECBF
:1007200004F02750226EA1EF03F015C027F016C089
:1007300028F0000E2A6E3E0E296E9EEC04F0275023
:10074000226E000E316E2250D8B4A9EF03F0ABEF49
:1007500003F0C7EF03F0000E326EBEEF03F032C0BD
:100760002FF0010E306E2F2AB8EF03F0D8903036FC
:100770002F2EB6EF03F030503126322A2250325C51
:10078000D8A0C5EF03F0C7EF03F0AFEF03F031C01F
:100790008CFF81B0CEEF03F0D0EF03F0E1EF03F078
:1007A0000A0E2160D6EF03F0D8EF03F0DBEF03F081
:1007B000212AF0EF03F08A868C68010E206EF0EF9C
:1007C00003F0000E216E2004D8A4E9EF03F0EBEF54
:1007D00003F0F0EF03F0000E206E000E8C6E8A9690
:1007E00023EC06F02404D8B4F8EF03F0FAEF03F09A
:1007F00036EF03F00300F2EF03F026EF00F02C6E6B
:10080000000E2D6E8CCF2DF0000E2E6E4AEF04F0F0
:10081000000E8C6E14EF04F08A92939229EF04F08C
:100820008A94939429EF04F02C502A6E2B6A2B5053
:10083000000AD8B41EEF04F029EF04F02A50000A91
:10084000D8B40CEF04F0010AD8B410EF04F029EF8B
:1008500004F00400A30E2A6E550EE82EFED72A2EB1
:10086000FCD700008C688A9293828A949384040057
:10087000A30E2A6E550EE82EFED72A2EFCD70000B6
:10088000210E2A6E760EE82EFED72A2EFCD700F017
:1008900000F02E2A27502E5CD8A051EF04F053EF21
:1008A00004F008EF04F02DC08CFF1200000E2D6E36
:1008B0001F50020DF350010FD96EDA6A27C0DEFF18
:1008C00028C0DDFF070E1F6068EF04F06AEF04F038
:1008D0006DEF04F01F2A6FEF04F0000E1F6E000E84
:1008E0002C6E000E2B6E000E2D6E2D50020DF3504F
:1008F000010FD96EDA6ADE502B26DD502C222D2A0C
:10090000070E2D6486EF04F088EF04F075EF04F015
:100910002BC029F02CC02AF0D8902A322932D89046
:100920002A322932D8902A32293229C02BF02AC003
:100930002CF02BC027F02CC028F01200000E2C6EDB
:10094000000E2B6E29502A10D8B4A9EF04F0ABEF9B
:1009500004F0D3EF04F0010E2D6EB3EF04F0D89045
:1009600029362A362D2A2AAEB8EF04F0BAEF04F061
:10097000AFEF04F0D8902B362C362950275C2A5044
:100980002858D8A0C6EF04F0C8EF04F0CDEF04F06B
:100990002950275E2A50285A2B80D8902A32293293
:1009A0002D2EBAEF04F02BC027F02CC028F0120037
:1009B000000E276E020E2318D8B4E1EF04F0E3EF27
:1009C00004F001EF05F08B0E195C020E1A58D8A046
:1009D000ECEF04F0EEEF04F001EF05F0F40E155C1F
:1009E000010E1658D8B0F7EF04F0F9EF04F0FDEF60
:1009F00004F0154A162A05EF05F0010E276E05EFE3
:100A000005F0000E166E000E156E27501200000E37
:100A1000276E2304D8B40FEF05F011EF05F02FEF88
:100A200005F0F40E195C010E1A58D8B01AEF05F053
:100A30001CEF05F02FEF05F0F40E175C010E1858AF
:100A4000D8B025EF05F027EF05F02BEF05F0174A9A
:100A5000182A33EF05F0010E276E33EF05F0000E74
:100A6000186E000E176E275012002B6E2BC029F047
:100A700029462946C2502918C30B2918C26EC280C4
:100A800000F000F0C282C2B248EF05F04AEF05F074
:100A900043EF05F0C4502A6E296AC3502924276EFB
:100AA000000E2A20286E1200F2941E50D76E1DC030
:100AB000D6FF33503410D8B460EF05F062EF05F084
:100AC0006FEF05F002D86FEF05F00500FA6E3350B6
:100AD000FD6E3450FE6EF850FF6EFA501200120098
:100AE000D09EF292F18C000E276E000E286E19EC4B
:100AF00006F0F090F18A000E276E000E286E14ECBE
:100B000006F0F092F188000E276E000E286E0FECB2
:100B100006F0120011501210D8B491EF05F093EFC7
:100B200005F0A2EF05F08A861106D8A01206115032
:100B30001210D8A49EEF05F0A0EF05F0A2EF05F08B
:100B40002CEC06F01200030E926E070E936E000E50
:100B5000946E000E956E000E966E030E7E6E000E65
:100B60007F6E000E7C6E000E7D6EF2961200D59C9C
:100B7000F60ED76E3C0ED66ED750276ED6501D6E31
:100B800027C01EF0F294F28A980ED56E12008A8663
:100B90000B0E126EB80E116E0400210E276E760E2B
:100BA000E82EFED7272EFCD700F000F0120000EE52
:100BB00001F0240EEE6AE806FDE13B903B92000E48
:100BC000F86E000107EF03F01EEC06F0F1EC05F003
:100BD000FEEC05F0B7EC05F026EC06F070EC05F045
:100BE0001200000E896E000E8A6E000E8B6E000ED3
:100BF0008C6E000E8D6EA3EC05F01200000EC16E1F
:100C0000B80EC06E000EC36E000EC46E030EC26E30
:100C10009E9C120027C033F028C034F0120027C079
:100C200035F028C036F0120027C037F028C038F061
:100C3000120027C039F028C03AF01200B20ED36E6D
:100C4000000E9B6E12008AEC05F01200010ED16EB0
:0C0C50001200010E246E12008A961200A1
:020000040030CA
:0E000000FF081F12FF8505FF0FC00FE00F4025
:00000001FF
