:0400000026EF00F0F7
:100008004182FACF25F0FBCF26F0F2AC0EEF00F0DC
:1000180010EF00F020EF00F0F2AA15EF00F017EF54
:1000280000F020EF00F0F2A41CEF00F01EEF00F04B
:1000380020EF00F0B0EC05F026C0FBFF25C0FAFF6A
:080048004192110033EF06F0B4
:1006000000260C000000000000D80C000000000EC6
:10061000386E40EC06F0160E276E0D0E286E6CEC50
:1006200006F0F28EF28C000E386E0400010E91EC92
:1006300005F027C01BF028C01CF01BC027F01CC011
:1006400028F0ECEC04F027C019F028C01AF0530E83
:10065000E82EFED70000382A070E386432EF03F088
:1006600034EF03F015EF03F002EF04F0000E246EF8
:100670000400FFEC05F0010E91EC05F027C01BF023
:1006800028C01CF01BC027F01CC028F0ECEC04F0C4
:1006900027C019F028C01AF034EC05F0E806D8A4F9
:1006A00054EF03F056EF03F065EF03F023EC06F090
:1006B000030E276E010E296EF40E286E000E95ECC7
:1006C00004F0020E236E7CEF03F063EC05F0E80605
:1006D000D8A46DEF03F06FEF03F07CEF03F023EC91
:1006E00006F0030E276E010E296EF40E286E010E21
:1006F00095EC04F0010E236E1750155C1850165837
:10070000D8B085EF03F087EF03F09BEF03F017C03D
:1007100027F018C028F0296A2A6ADC0E2B6E050E15
:100720002C6E000E2D6E000E2E6E0FEC04F0275076
:10073000226EADEF03F015C027F016C028F0296A2D
:100740002A6ADC0E2B6E050E2C6E000E2D6E000E2E
:100750002E6E0FEC04F02750226E000E376E2250E2
:10076000D8B4B5EF03F0B7EF03F0D3EF03F0000E0A
:10077000386ECAEF03F038C035F0010E366E352AF8
:10078000C4EF03F0D8903636352EC2EF03F0365062
:100790003726382A2250385CD8A0D1EF03F0D3EFA7
:1007A00003F0BBEF03F037C08CFF81B0DAEF03F04A
:1007B000DCEF03F0F0EF03F00A0E2160E2EF03F04C
:1007C000E4EF03F0E7EF03F0212A00EF04F023EC5D
:1007D00006F08C68010E206E000E236E00EF04F010
:1007E000000E216E2004D8A4F8EF03F0FAEF03F016
:1007F00000EF04F0000E206E000E8C6E66EC06F02A
:1008000085EC06F02404D8B408EF04F00AEF04F0F5
:1008100036EF03F0030002EF04F026EF00F0000EC5
:10082000306E2EBE18EF04F016EF04F022EF04F045
:100830002E1E2D1E2C1E2B6C000E2C222D222E2245
:10084000010E306E2ABE29EF04F027EF04F033EFDB
:1008500004F02A1E291E281E276C000E2822292299
:100860002A22010E301A000E316E000E326E000E7A
:10087000336E000E346E2B502C102D102E10D8B469
:1008800044EF04F046EF04F07CEF04F0010E2F6E0D
:1008900050EF04F0D8902B362C362D362E362F2ADA
:1008A0002EAE55EF04F057EF04F04AEF04F0D89065
:1008B00031363236333634362B50275C2C5028589C
:1008C0002D5029582E502A58D8A069EF04F06BEF0C
:1008D00004F074EF04F02B50275E2C50285A2D5052
:1008E000295A2E502A5A3180D8902E322D322C324D
:1008F0002B322F2E57EF04F03050D8B482EF04F093
:1009000084EF04F08CEF04F0341E331E321E316C81
:10091000000E32223322342231C027F032C028F0B8
:1009200033C029F034C02AF012002C6E000E2D6E58
:100930008CCF2DF0000E2E6EE0EF04F0000E8C6ECA
:10094000AAEF04F08A929392BFEF04F08A949394F2
:10095000BFEF04F02C502A6E2B6A2B50000AD8B43B
:10096000B4EF04F0BFEF04F02A50000AD8B4A2EFAD
:1009700004F0010AD8B4A6EF04F0BFEF04F00400BD
:10098000A30E2A6E550EE82EFED72A2EFCD70000A5
:100990008C688A9293828A9493840400A30E2A6EB0
:1009A000550EE82EFED72A2EFCD70000210E2A6E07
:1009B000760EE82EFED72A2EFCD700F000F02E2A65
:1009C00027502E5CD8A0E7EF04F0E9EF04F09EEF8B
:1009D00004F02DC08CFF1200000E2D6E1F50020D72
:1009E000F350010FD96EDA6A27C0DEFF28C0DDFFA1
:1009F000070E1F60FEEF04F000EF05F003EF05F0B7
:100A00001F2A05EF05F0000E1F6E000E2C6E000E63
:100A10002B6E000E2D6E2D50020DF350010FD96E6E
:100A2000DA6ADE502B26DD502C222D2A070E2D648B
:100A30001CEF05F01EEF05F00BEF05F02BC029F0C1
:100A40002CC02AF0D8902A322932D8902A32293262
:100A5000D8902A32293229C02BF02AC02CF02BC082
:100A600027F02CC028F01200000E276E020E23186B
:100A7000D8B43DEF05F03FEF05F05DEF05F08B0ECC
:100A8000195C020E1A58D8A048EF05F04AEF05F09D
:100A90005DEF05F0E00E155C2E0E1658D8B053EF42
:100AA00005F055EF05F059EF05F0154A162A61EFEC
:100AB00005F0010E276E61EF05F0000E166E000EB8
:100AC000156E27501200000E276E2304D8B46BEF6A
:100AD00005F06DEF05F08BEF05F0F40E195C010EDB
:100AE0001A58D8B076EF05F078EF05F08BEF05F0E7
:100AF000E00E175C2E0E1858D8B081EF05F083EF8A
:100B000005F087EF05F0174A182A8FEF05F0010E60
:100B1000276E8FEF05F0000E186E000E176E27502F
:100B200012002B6E2BC029F029462946C2502918E5
:100B3000C30B2918C26EC28000F000F0C282C2B29C
:100B4000A4EF05F0A6EF05F09FEF05F0C4502A6E64
:100B5000296AC3502924276E000E2A20286E12000D
:100B6000F2941E50D76E1DC0D6FF39503A10D8B43B
:100B7000BCEF05F0BEEF05F0CBEF05F002D8CBEFF0
:100B800005F00500FA6E3950FD6E3A50FE6EF850D1
:100B9000FF6EFA5012001200D09EF292F18C000EFD
:100BA000276E000E286E7BEC06F0F090F18A000EA6
:100BB000276E000E286E76EC06F0F092F188000E9B
:100BC000276E000E286E71EC06F012001150121004
:100BD000D8B4EDEF05F0EFEF05F0FEEF05F08A96E3
:100BE0001106D8A0120611501210D8A4FAEF05F081
:100BF000FCEF05F0FEEF05F066EC06F01200030EC8
:100C0000926E070E936E000E946E000E956E000E9F
:100C1000966E030E7E6E000E7F6E000E7C6E000ED2
:100C20007D6EF2961200D59CF60ED76E3C0ED66EF7
:100C3000D750276ED6501D6E27C01EF0F294F28A50
:100C4000980ED56E12008A960B0E126EB80E116EAB
:100C50000400210E276E760EE82EFED7272EFCD735
:100C600000F000F0120000EE01F0240EEE6AE8063B
:100C7000FDE141904192000EF86E000107EF03F094
:100C800080EC06F04DEC06F05AEC06F013EC06F0A2
:100C900088EC06F0CCEC05F01200000E896E000E18
:100CA0008A6E000E8B6E000E8C6E000E8D6EFFEC49
:100CB00005F01200000EC16EB80EC06E000EC36EBD
:100CC000000EC46E030EC26E9E9C1200000E126EC9
:100CD000000E116E8A86120027C039F028C03AF043
:100CE000120027C03BF028C03CF0120027C03DF0A6
:100CF00028C03EF0120027C03FF028C040F012008C
:100D0000B20ED36E000E9B6E1200E6EC05F01200E0
:0C0D1000010ED16E1200010E246E1200C4
:020000040030CA
:0E000000FF081F12FF8505FF0FC00FE00F4025
:00000001FF
