:020000040000FA
:0600000093EF00F0120076
:02002A000000D4
:04002C002A0EF66E34
:10003000000EF76E000EF86E00010900F550656FB6
:100040000900F550666F03E1656701D03DD00900F6
:10005000F550606F0900F550616F0900F550626F4F
:1000600009000900F550E96E0900F550EA6E090033
:1000700009000900F550636F0900F550646F09002D
:100080000900F6CF67F0F7CF68F0F8CF69F060C0ED
:10009000F6FF61C0F7FF62C0F8FF0001635302E1A1
:1000A000645307E00900F550EE6E6307F8E2640759
:1000B000F9D767C0F6FF68C0F7FF69C0F8FF000115
:0A00C0006507000E665BBFD7120053
:0600CA00D9CFE6FFE1CFF3
:1000D000D9FFE652DF6A0001010E6A6F956AF19E50
:1000E0007C807F6A93806AC08CFF00016A9F6A47A8
:1000F0006A5102E1010E6A6F81A0FED7050EDF6E24
:1001000081B002D0DF2A01D0DF6A190EE66EA1ECC1
:1001100000F0E552050EDF5CF3E3E5D7E552E5526A
:06012000E7CFD9FF120039
:0A01260014EE00F024EE00F0F86A79
:10013000019C16EC00F0B3EC00F065EC00F0FBD78E
:020140001200AB
:0E014200FF0EE350E84E1200000000D000D087
:0801500000D0E82EFAD71200DE
:0801580000EE00F00F0EEE6A4C
:06016000EA62FDD7120067
:02016600120085
:020000040030CA
:0100010008F6
:0100020007F6
:010003001EDE
:010005000BEF
:010006008178
:010008000FE8
:01000900C036
:01000A000FE6
:01000B00E014
:01000C000FE4
:01000D0040B2
:00000001FF
